S00C00004C6162332E73726563D6
S11300000C945A000C946F000C946F000C946F00C5
S11300100C946F000C946F000C946F000C946F00A0
S11300200C946F000C946F000C946F000C946F0090
S11300300C946F000C946F000C946F000C946F0080
S11300400C946F000C946F000C946F000C946F0070
S11300500C946F000C946F000C946F000C946F0060
S11300600C946F000C946F000C946F000C946F0050
S11300700C946F000C946F000C946F000C946F0040
S11300800C946F000C946F000C946F000C946F0030
S11300900C946F000C946F000C946F000C946F0020
S11300A00C946F000C946F000C946F000C946F0010
S11300B00C946F0011241FBECFEFD8E0DEBFCDBF7C
S11300C011E0A0E0B1E0E8E8F1E002C005900D9293
S11300D0A030B107D9F70E94B6000C94C2000C946A
S11300E0000084B1876084B985B1887F85B908959B
S11300F095B1987F95B9813011F4289A089582308A
S113010011F4299A0895833009F42A9A0895809164
S11301107A00806480937A0080917A0086FDFCCF17
S113012080917800909179000895EC010E948700F5
S1130130C817D907D8F72FEF85EA9EE021508040F1
S11301409040E1F700C000000E948700C817D9075B
S113015068F72FEF85EA9EE0215080409040E1F758
S113016000C0000081E00E947800E0CF0E9471008E
S113017080E480937C0086E880937A0080E092E0BB
S10B01800E949500F894FFCFE2
S9030000FC
